{
  "contractName": "Charity",
  "abi": [
    {
      "anonymous": false,
      "inputs": [
        {
          "indexed": true,
          "internalType": "address",
          "name": "previousOwner",
          "type": "address"
        },
        {
          "indexed": true,
          "internalType": "address",
          "name": "newOwner",
          "type": "address"
        }
      ],
      "name": "OwnershipTransferred",
      "type": "event"
    },
    {
      "anonymous": false,
      "inputs": [
        {
          "indexed": false,
          "internalType": "uint256",
          "name": "id",
          "type": "uint256"
        },
        {
          "indexed": false,
          "internalType": "string",
          "name": "CampaignName",
          "type": "string"
        },
        {
          "indexed": false,
          "internalType": "address",
          "name": "Raiser",
          "type": "address"
        }
      ],
      "name": "logAddedCampaign",
      "type": "event"
    },
    {
      "anonymous": false,
      "inputs": [
        {
          "indexed": false,
          "internalType": "address",
          "name": "donater",
          "type": "address"
        },
        {
          "indexed": false,
          "internalType": "uint256",
          "name": "amt",
          "type": "uint256"
        },
        {
          "indexed": false,
          "internalType": "uint256",
          "name": "Raised",
          "type": "uint256"
        }
      ],
      "name": "logDonated",
      "type": "event"
    },
    {
      "inputs": [
        {
          "internalType": "uint256",
          "name": "",
          "type": "uint256"
        }
      ],
      "name": "Campaigns",
      "outputs": [
        {
          "internalType": "string",
          "name": "name",
          "type": "string"
        },
        {
          "internalType": "uint256",
          "name": "donUnit",
          "type": "uint256"
        },
        {
          "internalType": "uint256",
          "name": "id",
          "type": "uint256"
        },
        {
          "internalType": "address",
          "name": "Raiser",
          "type": "address"
        },
        {
          "internalType": "uint256",
          "name": "RaisedAmt",
          "type": "uint256"
        },
        {
          "internalType": "uint256",
          "name": "goal",
          "type": "uint256"
        },
        {
          "internalType": "enum Project.State",
          "name": "state",
          "type": "uint8"
        },
        {
          "internalType": "uint256",
          "name": "timestamp",
          "type": "uint256"
        },
        {
          "internalType": "uint256",
          "name": "deadline",
          "type": "uint256"
        },
        {
          "internalType": "string",
          "name": "description",
          "type": "string"
        }
      ],
      "stateMutability": "view",
      "type": "function",
      "constant": true
    },
    {
      "inputs": [
        {
          "internalType": "uint256",
          "name": "",
          "type": "uint256"
        }
      ],
      "name": "IDList",
      "outputs": [
        {
          "internalType": "uint256",
          "name": "",
          "type": "uint256"
        }
      ],
      "stateMutability": "view",
      "type": "function",
      "constant": true
    },
    {
      "inputs": [],
      "name": "campaignCount",
      "outputs": [
        {
          "internalType": "uint256",
          "name": "",
          "type": "uint256"
        }
      ],
      "stateMutability": "view",
      "type": "function",
      "constant": true
    },
    {
      "inputs": [],
      "name": "owner",
      "outputs": [
        {
          "internalType": "address",
          "name": "",
          "type": "address"
        }
      ],
      "stateMutability": "view",
      "type": "function",
      "constant": true
    },
    {
      "inputs": [],
      "name": "renounceOwnership",
      "outputs": [],
      "stateMutability": "nonpayable",
      "type": "function"
    },
    {
      "inputs": [
        {
          "internalType": "address",
          "name": "newOwner",
          "type": "address"
        }
      ],
      "name": "transferOwnership",
      "outputs": [],
      "stateMutability": "nonpayable",
      "type": "function"
    },
    {
      "inputs": [
        {
          "internalType": "string",
          "name": "_name",
          "type": "string"
        },
        {
          "internalType": "string",
          "name": "_description",
          "type": "string"
        },
        {
          "internalType": "uint256",
          "name": "_goal",
          "type": "uint256"
        },
        {
          "internalType": "uint256",
          "name": "_donUnit",
          "type": "uint256"
        }
      ],
      "name": "AddCampaign",
      "outputs": [],
      "stateMutability": "nonpayable",
      "type": "function"
    },
    {
      "inputs": [
        {
          "internalType": "uint256",
          "name": "_id",
          "type": "uint256"
        }
      ],
      "name": "Donate",
      "outputs": [],
      "stateMutability": "payable",
      "type": "function",
      "payable": true
    },
    {
      "inputs": [
        {
          "internalType": "uint256",
          "name": "_id",
          "type": "uint256"
        }
      ],
      "name": "claimFunds",
      "outputs": [],
      "stateMutability": "nonpayable",
      "type": "function"
    },
    {
      "inputs": [
        {
          "internalType": "uint256",
          "name": "_id",
          "type": "uint256"
        }
      ],
      "name": "getRaisedAmt",
      "outputs": [
        {
          "internalType": "uint256",
          "name": "",
          "type": "uint256"
        }
      ],
      "stateMutability": "view",
      "type": "function",
      "constant": true
    },
    {
      "inputs": [
        {
          "internalType": "uint256",
          "name": "num",
          "type": "uint256"
        }
      ],
      "name": "addNum",
      "outputs": [],
      "stateMutability": "nonpayable",
      "type": "function"
    },
    {
      "inputs": [
        {
          "internalType": "uint256",
          "name": "num",
          "type": "uint256"
        }
      ],
      "name": "returnTest",
      "outputs": [
        {
          "internalType": "uint256",
          "name": "",
          "type": "uint256"
        }
      ],
      "stateMutability": "view",
      "type": "function",
      "constant": true
    },
    {
      "inputs": [],
      "name": "retcount",
      "outputs": [
        {
          "internalType": "uint256",
          "name": "",
          "type": "uint256"
        }
      ],
      "stateMutability": "nonpayable",
      "type": "function"
    }
  ],
  "bytecode": "0x6080604052600060035534801561001557600080fd5b5061003261002761003760201b60201c565b61003f60201b60201c565b610103565b600033905090565b60008060009054906101000a900473ffffffffffffffffffffffffffffffffffffffff169050816000806101000a81548173ffffffffffffffffffffffffffffffffffffffff021916908373ffffffffffffffffffffffffffffffffffffffff1602179055508173ffffffffffffffffffffffffffffffffffffffff168173ffffffffffffffffffffffffffffffffffffffff167f8be0079c531659141344cd1fd0a4f28419497f9722a3daafe3b4186f6b6457e060405160405180910390a35050565b6119e1806101126000396000f3fe6080604052600436106100c25760003560e01c80637274e30d1161007f5780638da5cb5b116100595780638da5cb5b14610262578063cd1275281461028d578063f2fde38b146102ca578063f6624f1e146102f3576100c2565b80637274e30d146101e3578063752783621461020e5780638130272e14610237576100c2565b806309e8a580146100c75780631b55e338146101045780631ddad1a21461012d57806333ac26271461016a5780634013be1014610186578063715018a6146101cc575b600080fd5b3480156100d357600080fd5b506100ee60048036038101906100e9919061118f565b61031c565b6040516100fb9190611686565b60405180910390f35b34801561011057600080fd5b5061012b6004803603810190610126919061118f565b61036a565b005b34801561013957600080fd5b50610154600480360381019061014f919061118f565b610541565b6040516101619190611686565b60405180910390f35b610184600480360381019061017f919061118f565b610561565b005b34801561019257600080fd5b506101ad60048036038101906101a8919061118f565b610774565b6040516101c39a999897969594939291906114fc565b60405180910390f35b3480156101d857600080fd5b506101e1610905565b005b3480156101ef57600080fd5b506101f861098d565b6040516102059190611686565b60405180910390f35b34801561021a57600080fd5b506102356004803603810190610230919061118f565b610993565b005b34801561024357600080fd5b5061024c6109bf565b6040516102599190611686565b60405180910390f35b34801561026e57600080fd5b506102776109c9565b60405161028491906114aa565b60405180910390f35b34801561029957600080fd5b506102b460048036038101906102af919061118f565b6109f2565b6040516102c19190611686565b60405180910390f35b3480156102d657600080fd5b506102f160048036038101906102ec91906110d3565b610a16565b005b3480156102ff57600080fd5b5061031a600480360381019061031591906110fc565b610b0e565b005b600060048281548110610358577f4e487b7100000000000000000000000000000000000000000000000000000000600052603260045260246000fd5b90600052602060002001549050919050565b6002600082815260200190815260200160002060030160009054906101000a900473ffffffffffffffffffffffffffffffffffffffff1673ffffffffffffffffffffffffffffffffffffffff163373ffffffffffffffffffffffffffffffffffffffff161461040e576040517f08c379a000000000000000000000000000000000000000000000000000000000815260040161040590611646565b60405180910390fd5b600260008281526020019081526020016000206005015460026000838152602001908152602001600020600401541461047c576040517f08c379a0000000000000000000000000000000000000000000000000000000008152600401610473906115e6565b60405180910390fd5b60006002600083815260200190815260200160002060060160006101000a81548160ff021916908360018111156104dc577f4e487b7100000000000000000000000000000000000000000000000000000000600052602160045260246000fd5b02179055503373ffffffffffffffffffffffffffffffffffffffff166108fc60026000848152602001908152602001600020600401549081150290604051600060405180830381858888f1935050505015801561053d573d6000803e3d6000fd5b5050565b600060026000838152602001908152602001600020600401549050919050565b8060018081111561059b577f4e487b7100000000000000000000000000000000000000000000000000000000600052602160045260246000fd5b6002600083815260200190815260200160002060060160009054906101000a900460ff1660018111156105f7577f4e487b7100000000000000000000000000000000000000000000000000000000600052602160045260246000fd5b14610637576040517f08c379a000000000000000000000000000000000000000000000000000000000815260040161062e90611626565b60405180910390fd5b6002600083815260200190815260200160002060010154341461065957600080fd5b3460026000848152602001908152602001600020600401600082825461067f9190611771565b92505081905550600260008381526020019081526020016000206005015460026000848152602001908152602001600020600401541061071f5760006002600084815260200190815260200160002060060160006101000a81548160ff02191690836001811115610719577f4e487b7100000000000000000000000000000000000000000000000000000000600052602160045260246000fd5b02179055505b7f3a2757838e2d74056113014fef8487fb5a5a2ab2e9c777a72c77e892cb86131c33346002600086815260200190815260200160002060040154604051610768939291906114c5565b60405180910390a15050565b60026020528060005260406000206000915090508060000180546107979061186a565b80601f01602080910402602001604051908101604052809291908181526020018280546107c39061186a565b80156108105780601f106107e557610100808354040283529160200191610810565b820191906000526020600020905b8154815290600101906020018083116107f357829003601f168201915b5050505050908060010154908060020154908060030160009054906101000a900473ffffffffffffffffffffffffffffffffffffffff16908060040154908060050154908060060160009054906101000a900460ff16908060070154908060080154908060090180546108829061186a565b80601f01602080910402602001604051908101604052809291908181526020018280546108ae9061186a565b80156108fb5780601f106108d0576101008083540402835291602001916108fb565b820191906000526020600020905b8154815290600101906020018083116108de57829003601f168201915b505050505090508a565b61090d610ed2565b73ffffffffffffffffffffffffffffffffffffffff1661092b6109c9565b73ffffffffffffffffffffffffffffffffffffffff1614610981576040517f08c379a000000000000000000000000000000000000000000000000000000000815260040161097890611606565b60405180910390fd5b61098b6000610eda565b565b60035481565b600481908060018154018082558091505060019003906000526020600020016000909190919091505550565b6000600354905090565b60008060009054906101000a900473ffffffffffffffffffffffffffffffffffffffff16905090565b60018181548110610a0257600080fd5b906000526020600020016000915090505481565b610a1e610ed2565b73ffffffffffffffffffffffffffffffffffffffff16610a3c6109c9565b73ffffffffffffffffffffffffffffffffffffffff1614610a92576040517f08c379a0000000000000000000000000000000000000000000000000000000008152600401610a8990611606565b60405180910390fd5b600073ffffffffffffffffffffffffffffffffffffffff168173ffffffffffffffffffffffffffffffffffffffff161415610b02576040517f08c379a0000000000000000000000000000000000000000000000000000000008152600401610af9906115c6565b60405180910390fd5b610b0b81610eda565b50565b610b16610ed2565b73ffffffffffffffffffffffffffffffffffffffff16610b346109c9565b73ffffffffffffffffffffffffffffffffffffffff1614610b8a576040517f08c379a0000000000000000000000000000000000000000000000000000000008152600401610b8190611606565b60405180910390fd5b6000845111610bce576040517f08c379a0000000000000000000000000000000000000000000000000000000008152600401610bc590611666565b60405180910390fd5b60008211610c11576040517f08c379a0000000000000000000000000000000000000000000000000000000008152600401610c08906115a6565b60405180910390fd5b60006001600354610c229190611771565b90506001819080600181540180825580915050600190039060005260206000200160009091909190915055604051806101400160405280868152602001838152602001828152602001610c736109c9565b73ffffffffffffffffffffffffffffffffffffffff16815260200160008152602001848152602001600180811115610cd4577f4e487b7100000000000000000000000000000000000000000000000000000000600052602160045260246000fd5b81526020014281526020016000815260200185815250600260008381526020019081526020016000206000820151816000019080519060200190610d19929190610f9e565b50602082015181600101556040820151816002015560608201518160030160006101000a81548173ffffffffffffffffffffffffffffffffffffffff021916908373ffffffffffffffffffffffffffffffffffffffff1602179055506080820151816004015560a0820151816005015560c08201518160060160006101000a81548160ff02191690836001811115610dda577f4e487b7100000000000000000000000000000000000000000000000000000000600052602160045260246000fd5b021790555060e082015181600701556101008201518160080155610120820151816009019080519060200190610e11929190610f9e565b509050507fb14417f2fe5b1caeb934cc8c9782d96e9cea6b9cf86745b386aad755a785e1f66002600083815260200190815260200160002060020154600260008481526020019081526020016000206000016002600085815260200190815260200160002060030160009054906101000a900473ffffffffffffffffffffffffffffffffffffffff16604051610ea9939291906116a1565b60405180910390a1600160036000828254610ec49190611771565b925050819055505050505050565b600033905090565b60008060009054906101000a900473ffffffffffffffffffffffffffffffffffffffff169050816000806101000a81548173ffffffffffffffffffffffffffffffffffffffff021916908373ffffffffffffffffffffffffffffffffffffffff1602179055508173ffffffffffffffffffffffffffffffffffffffff168173ffffffffffffffffffffffffffffffffffffffff167f8be0079c531659141344cd1fd0a4f28419497f9722a3daafe3b4186f6b6457e060405160405180910390a35050565b828054610faa9061186a565b90600052602060002090601f016020900481019282610fcc5760008555611013565b82601f10610fe557805160ff1916838001178555611013565b82800160010185558215611013579182015b82811115611012578251825591602001919060010190610ff7565b5b5090506110209190611024565b5090565b5b8082111561103d576000816000905550600101611025565b5090565b600061105461104f84611710565b6116df565b90508281526020810184848401111561106c57600080fd5b611077848285611828565b509392505050565b60008135905061108e8161197d565b92915050565b600082601f8301126110a557600080fd5b81356110b5848260208601611041565b91505092915050565b6000813590506110cd81611994565b92915050565b6000602082840312156110e557600080fd5b60006110f38482850161107f565b91505092915050565b6000806000806080858703121561111257600080fd5b600085013567ffffffffffffffff81111561112c57600080fd5b61113887828801611094565b945050602085013567ffffffffffffffff81111561115557600080fd5b61116187828801611094565b9350506040611172878288016110be565b9250506060611183878288016110be565b91505092959194509250565b6000602082840312156111a157600080fd5b60006111af848285016110be565b91505092915050565b6111c1816117c7565b82525050565b6111d081611816565b82525050565b60006111e182611755565b6111eb8185611760565b93506111fb818560208601611837565b61120481611958565b840191505092915050565b6000815461121c8161186a565b6112268186611760565b94506001821660008114611241576001811461125357611286565b60ff1983168652602086019350611286565b61125c85611740565b60005b8381101561127e5781548189015260018201915060208101905061125f565b808801955050505b50505092915050565b600061129c601583611760565b91507f20676f616c2063616e6e6f7420626520302065746800000000000000000000006000830152602082019050919050565b60006112dc602683611760565b91507f4f776e61626c653a206e6577206f776e657220697320746865207a65726f206160008301527f64647265737300000000000000000000000000000000000000000000000000006020830152604082019050919050565b6000611342601c83611760565b91507f736f7272792063616d706169676e2069736e74206f76657220796574000000006000830152602082019050919050565b6000611382602083611760565b91507f4f776e61626c653a2063616c6c6572206973206e6f7420746865206f776e65726000830152602082019050919050565b60006113c2601d83611760565b91507f546869732043616d706169676e20686173206265656e20636c6f7365640000006000830152602082019050919050565b6000611402602b83611760565b91507f596f7520646f6e277420686176652074686520726967687420746f20636c616960008301527f6d207468652066756e64730000000000000000000000000000000000000000006020830152604082019050919050565b6000611468601483611760565b91507f6e616d652063616e6e6f7420626520656d7074790000000000000000000000006000830152602082019050919050565b6114a48161180c565b82525050565b60006020820190506114bf60008301846111b8565b92915050565b60006060820190506114da60008301866111b8565b6114e7602083018561149b565b6114f4604083018461149b565b949350505050565b6000610140820190508181036000830152611517818d6111d6565b9050611526602083018c61149b565b611533604083018b61149b565b611540606083018a6111b8565b61154d608083018961149b565b61155a60a083018861149b565b61156760c08301876111c7565b61157460e083018661149b565b61158261010083018561149b565b81810361012083015261159581846111d6565b90509b9a5050505050505050505050565b600060208201905081810360008301526115bf8161128f565b9050919050565b600060208201905081810360008301526115df816112cf565b9050919050565b600060208201905081810360008301526115ff81611335565b9050919050565b6000602082019050818103600083015261161f81611375565b9050919050565b6000602082019050818103600083015261163f816113b5565b9050919050565b6000602082019050818103600083015261165f816113f5565b9050919050565b6000602082019050818103600083015261167f8161145b565b9050919050565b600060208201905061169b600083018461149b565b92915050565b60006060820190506116b6600083018661149b565b81810360208301526116c8818561120f565b90506116d760408301846111b8565b949350505050565b6000604051905081810181811067ffffffffffffffff8211171561170657611705611929565b5b8060405250919050565b600067ffffffffffffffff82111561172b5761172a611929565b5b601f19601f8301169050602081019050919050565b60008190508160005260206000209050919050565b600081519050919050565b600082825260208201905092915050565b600061177c8261180c565b91506117878361180c565b9250827fffffffffffffffffffffffffffffffffffffffffffffffffffffffffffffffff038211156117bc576117bb61189c565b5b828201905092915050565b60006117d2826117ec565b9050919050565b60008190506117e782611969565b919050565b600073ffffffffffffffffffffffffffffffffffffffff82169050919050565b6000819050919050565b6000611821826117d9565b9050919050565b82818337600083830152505050565b60005b8381101561185557808201518184015260208101905061183a565b83811115611864576000848401525b50505050565b6000600282049050600182168061188257607f821691505b60208210811415611896576118956118fa565b5b50919050565b7f4e487b7100000000000000000000000000000000000000000000000000000000600052601160045260246000fd5b7f4e487b7100000000000000000000000000000000000000000000000000000000600052602160045260246000fd5b7f4e487b7100000000000000000000000000000000000000000000000000000000600052602260045260246000fd5b7f4e487b7100000000000000000000000000000000000000000000000000000000600052604160045260246000fd5b6000601f19601f8301169050919050565b6002811061197a576119796118cb565b5b50565b611986816117c7565b811461199157600080fd5b50565b61199d8161180c565b81146119a857600080fd5b5056fea26469706673582212205759d8151504622c4fd5a1349ab37ad09466e695eede0f8237f4f7981af2c52764736f6c63430008000033",
  "immutableReferences": {},
  "source": "pragma solidity 0.8.0;\nimport \"@openzeppelin/contracts/access/Ownable.sol\";\n\n/// @title  Crowdfunding  & Charity collection Platform\n/// @author Kareem Kassab\n/// @notice this is a project to allow for launching crowdfunding campaigns for projects, and can be extended to collect charity donations\n/// @dev All function calls are currently implemented without side effects\n\n\n\n/// @dev abstract class for charity and crowdfunding contracts to inherit from\ninterface Project{\n    enum State {Closed, Ongoing}\n    function Donate(uint _id) external payable;\n}\n\ncontract Charity is Project, Ownable{\n    struct Campaign {\n        string name;\n        uint donUnit;\n        uint id;\n        address Raiser;\n        uint RaisedAmt;\n        uint256 goal;\n        State state;\n        uint timestamp;\n        uint256 deadline;\n        string description;\n        /*uint duration; \n        string InfoUrl;\n        string ImgUrl;*/\n    }\n    \n    uint[] public IDList;\n    mapping (uint => Campaign) public Campaigns;\n    uint public campaignCount= 0;\n// @notice Explain to an end user what this does\n/// @dev Explain to a developer any extra details\n\nevent logAddedCampaign(uint  id, string  CampaignName, address  Raiser);\nevent logDonated(address donater, uint amt, uint Raised);\n\n\n/*\nmodifiers\n*/    uint[] Test;\n///vlidate that the campaign is in an Ongoing state to accept donations\nmodifier isOngoing (uint id){\nrequire (Campaigns[id].state== State.Ongoing , \"This Campaign has been closed\");\n    _;\n}\n\n/*\nfunctions\n*/\n\n/// @dev Explain to a developer any extra details\n\nfunction AddCampaign(string memory _name, string memory _description, uint _goal, uint _donUnit) public onlyOwner{\n    //, uint _duration, string memory _InfoUrl, string memory _ImgUrl\n    require(bytes(_name).length>0, \"name cannot be empty\");\n    require(_goal>0, \" goal cannot be 0 eth\");\n//require(_duration>0, \" duration cannot be 0 days\");\n\n    uint newID= campaignCount + 1;\n    \n    //newCampaign.deadline= block.timestamp + (_duration * 1 days);\n    IDList.push(newID);\n    Campaigns[newID] = Campaign(_name, _donUnit, newID, owner(), 0, _goal, State.Ongoing, block.timestamp, 0, _description);\n\n    emit logAddedCampaign(Campaigns[newID].id, Campaigns[newID].name, Campaigns[newID].Raiser);\n    campaignCount+= 1;\n}\n\n/// @dev checks if the campaign's deadline hastn passed, checks that the sent amount is equal to the donated amount, increases the raised amount for the campaign.\n\n    function  Donate (uint _id) external  payable override isOngoing(_id){\n        require(msg.value== Campaigns[_id].donUnit);\n        Campaigns[_id].RaisedAmt += msg.value;\n\n        if(Campaigns[_id].RaisedAmt>=Campaigns[_id].goal){\n            Campaigns[_id].state= State.Closed;\n        }\n\n        emit logDonated(msg.sender, msg.value, Campaigns[_id].RaisedAmt);\n    }\n\n\n\n    function  claimFunds (uint _id) external {\n        require(msg.sender== Campaigns[_id].Raiser, \"You don't have the right to claim the funds\");\n        require (Campaigns[_id].RaisedAmt == Campaigns[_id].goal, \"sorry campaign isnt over yet\" );\n        Campaigns[_id].state= State.Closed;\n        payable(msg.sender).transfer(Campaigns[_id].RaisedAmt); ///transfer raised amt only\n    }\n\n    function getRaisedAmt(uint _id)  public view returns (uint) {\n        return Campaigns[_id].RaisedAmt;\n    }\n\n    function addNum(uint num) public {\n        Test.push(num);\n    }\n\n    function returnTest(uint num) view public returns (uint) {\n        return Test[num];\n    }\n      \n    function retcount() public returns (uint){\n        return campaignCount;\n    }\n    ///function getCampaign(uint id) public\n  \n}\n\n//////////////////////////////////////////////////////////////////////////////////////////////////////////////////////////////////////\n//////////////////////////////////////////////////////////////////////////////////////////////////////////////////////////////////////\n\n\n\n/// @notice adds new campaigns, allows users to send donations, allows fund raisers to claim their funds when the campaign is over\n/// @dev Explain to a developer any extra detail549+-\n\n\n\n\n\n/**contract CrowdFunding is Project, Ownable {\n\n\n    struct Campaign {\n        string name;\n        uint id;\n        address Raiser;\n        uint RaisedAmt;\n        uint256 goal;\n        State state;This Ca\n        uint timestamp;\n        uint duration; \n        uint256 deadline;\n        string description;\n        string InfoUrl;\n        string ImgUrl;This Ca\n    mapping (uint => Campaign) public CF_Campaigns;\n    uint campaignCount= 0;\n// @notice Explain to an end user what this does\n/// @dev Explain to a developer any extra details\n\nevent logAddedCampaign(uint indexed id, string indexed CampaignName, address indexed Raiser);\n\nThis Ca\n/*\nmodifiers\n\n\n///@notice checks if the campaign is still running \n///@dev used to validate that the campaign is in an Ongoing state to accept donations\nmodifier isOngoing (uint id){\nrequire (CF_Campaigns[id].state== State.Ongoing , \"This Campaign has been closed\");\n    _;\n}\n\n/*\nfunctions\n\n\n\nfunction AddCampaign(string memory _name, string memory _description, uint _goal, uint _duration, string memory _InfoUrl, string memory _ImgUrl) public{\n    uint newID= campaignCount + 1;\n    Campaign memory newCampaign = Campaign({\n            name: _name,\n            id: newID,\n            Raiser: msg.sender,\n            RaisedAmt: 0, \n            goal: _goal,\n            state: State.Ongoing,\n            timestamp: block.timestamp,\n            duration: _duration,\n            deadline: 0 ,\n            description: _description,\n            InfoUrl: _InfoUrl,\n            ImgUrl: _ImgUrl });\n    \n    newCampaign.deadline= block.timestamp + (_duration * 1 days);\n    IDList.push(newID);\n    CF_Campaigns[newCampaign.id] = newCampaign;\n    emit logAddedCampaign(newCampaign.id, newCampaign.name, msg.sender);\n    campaignCount+= 1;\n}\n\n/// @dev checks if the campaign's deadline hastn passed, checks that the sent amount is equal to the donated amount, increases the raised amount for the campaign.\n\nfunction  Donate (uint _id, uint amount) external  payable isOngoing(_id){\n    require(msg.value == amount);\n    require(CF_Campaigns[_id].timestamp + block.timestamp < CF_Campaigns[_id].deadline);\n    CF_Campaigns[_id].RaisedAmt+= amount;\n}\n\n\n/// end of contract\n}\n\n/*\n\n\n\nfunction CheckDeadlines\nfunction TerminateCampaign + refund\nfunction collectFunds\n\n\n */\n",
  "sourcePath": "/home/kareemikassab/Consensys course/marketplace-master/src/contracts/Charity.sol",
  "compiler": {
    "name": "solc",
    "version": "0.8.0+commit.c7dfd78e.Emscripten.clang"
  },
  "schemaVersion": "3.4.3",
  "updatedAt": "2022-01-21T12:30:12.845Z",
  "networkType": "ethereum",
  "devdoc": {
    "events": {
      "logAddedCampaign(uint256,string,address)": {
        "details": "Explain to a developer any extra details"
      }
    },
    "kind": "dev",
    "methods": {
      "AddCampaign(string,string,uint256,uint256)": {
        "details": "Explain to a developer any extra details"
      },
      "Donate(uint256)": {
        "details": "checks if the campaign's deadline hastn passed, checks that the sent amount is equal to the donated amount, increases the raised amount for the campaign."
      },
      "owner()": {
        "details": "Returns the address of the current owner."
      },
      "renounceOwnership()": {
        "details": "Leaves the contract without owner. It will not be possible to call `onlyOwner` functions anymore. Can only be called by the current owner. NOTE: Renouncing ownership will leave the contract without an owner, thereby removing any functionality that is only available to the owner."
      },
      "transferOwnership(address)": {
        "details": "Transfers ownership of the contract to a new account (`newOwner`). Can only be called by the current owner."
      }
    },
    "version": 1
  },
  "userdoc": {
    "kind": "user",
    "methods": {},
    "version": 1
  }
}